:020000040800F2
:10000000002800204D0100085D020008650200087C
:100010006D020008750200087D0200080000000063
:100020000000000000000000000000008502000841
:1000300091020008000000009D020008A9020008CB
:10004000B5020008B5020008B5020008B5020008B4
:10005000B5020008B5020008B5020008B5020008A4
:10006000B5020008B5020008B5020008B502000894
:10007000B5020008B5020008B5020008B502000884
:10008000B5020008B5020008B5020008B502000874
:10009000B5020008B5020008B5020008B502000864
:1000A000B5020008B5020008B5020008B502000854
:1000B000B5020008B502000800000000B502000803
:1000C000B50200080000000000000000B5020008B2
:1000D00000000000B5020008B502000800000000A2
:1000E000B5020008B5020008B502000800000000D3
:1000F0000000000000000000000000000000000000
:0C01000000000000000000005FF808F1A3
:10010C0010B5054C237833B9044B13B10448AFF345
:10011C0000800123237010BD0400002000000000AB
:10012C00DC02000808B5034B1BB103490348AFF3CD
:10013C00008008BD0000000008000020DC02000860
:10014C0072B63848016841F0010141F0040141F0F8
:10015C00080141F0100101603348016821F0E061B1
:10016C0041F00071016031484FF04431016030487A
:10017C004FF0223101602F482F4901602F48016850
:10018C0021F4700141F4800101602D48016841F4B3
:10019C00005101602B484FF00001016000F02FF876
:1001AC002948046804F0FF0426484FF4005101600C
:1001BC0000F025F82448056805F0FF0521484FF4A8
:1001CC008041016000F01BF866194FF0000747F101
:1001DC00000706F0FF064FEA072746EA070116F06C
:1001EC00040F04D041F0040141F40071FFE741F425
:1001FC0000411448016000F002F8CBE7FEE7134819
:10020C00016811F4005FFBD14FF4FA52013AFDD1B1
:10021C00016811F4005FFBD04FF4FA52013AFDD1A2
:10022C007047000018100240040001400008014013
:10023C00000C0140040C014022002022041001405B
:10024C000C1001400C0C0140080801400810014042
:10025C0080B400AF00BFFDE780B400AF00BFFDE786
:10026C0080B400AF00BFFDE780B400AF00BFFDE776
:10027C0080B400AF00BFFDE780B400AF00BFBD4647
:10028C0080BC704780B400AF00BFBD4680BC7047D7
:10029C0080B400AF00BFBD4680BC704780B500AFD6
:1002AC0000F004F800BF80BDFEE7000080B400AF92
:1002BC00054B1B781A46054B1B681344034A136005
:1002CC0000BFBD4680BC704700000020200000200D
:1002DC00F8B500BFF8BC08BC9E467047F8B500BF27
:0802EC00F8BC08BC9E467047F7
:0402F40031010008CC
:0402F8000D010008EC
:0402FC0001000000FD
:040000050800014DA1
:00000001FF
