:020000040800F2
:10000000002800204D0100086D020008750200085C
:100010007D020008850200088D0200080000000033
:100020000000000000000000000000009502000831
:10003000A102000800000000AD020008B90200089B
:10004000C5020008C5020008C5020008C502000874
:10005000C5020008C5020008C5020008C502000864
:10006000C5020008C5020008C5020008C502000854
:10007000C5020008C5020008C5020008C502000844
:10008000C5020008C5020008C5020008C502000834
:10009000C5020008C5020008C5020008C502000824
:1000A000C5020008C5020008C5020008C502000814
:1000B000C5020008C502000800000000C5020008D3
:1000C000C50200080000000000000000C502000892
:1000D00000000000C5020008C50200080000000082
:1000E000C5020008C5020008C502000800000000A3
:1000F0000000000000000000000000000000000000
:0C01000000000000000000005FF808F1A3
:10010C0010B5054C237833B9044B13B10448AFF345
:10011C0000800123237010BD0400002000000000AB
:10012C00EC02000808B5034B1BB103490348AFF3BD
:10013C00008008BD0000000008000020EC02000850
:10014C0072B63C48016841F0010141F0040141F0F4
:10015C00080141F0100101603748016821F0E061AD
:10016C0041F00071016035484FF044310160344872
:10017C004FF0223101603348334901603348016844
:10018C0021F4700141F4800101603148016841F4AF
:10019C00005101602F484FF00001016000F037F86A
:1001AC002D48046804F0FF042A484FF40051016004
:1001BC0000F02DF82848056805F0FF0525484FF498
:1001CC008041016000F023F866194FF0000747F1F9
:1001DC00000706F0FF064FF0000106F0010241EAAD
:1001EC00020106F0020241EA020106F0FC024FEAAB
:1001FC00420241EA02014FEA472741EA070141F472
:10020C0000411448016000F002F8C3E7FEE7134810
:10021C00016811F4005FFBD14FF4FA52013AFDD1A1
:10022C00016811F4005FFBD04FF4FA52013AFDD192
:10023C007047000018100240040001400008014003
:10024C00000C0140040C014022002022041001404B
:10025C000C1001400C0C0140080801400810014032
:10026C0080B400AF00BFFDE780B400AF00BFFDE776
:10027C0080B400AF00BFFDE780B400AF00BFFDE766
:10028C0080B400AF00BFFDE780B400AF00BFBD4637
:10029C0080BC704780B400AF00BFBD4680BC7047C7
:1002AC0080B400AF00BFBD4680BC704780B500AFC6
:1002BC0000F004F800BF80BDFEE7000080B400AF82
:1002CC00054B1B781A46054B1B681344034A1360F5
:1002DC0000BFBD4680BC70470000002020000020FD
:1002EC00F8B500BFF8BC08BC9E467047F8B500BF17
:0802FC00F8BC08BC9E467047E7
:0403040031010008BB
:040308000D010008DB
:04030C0001000000EC
:040000050800014DA1
:00000001FF
